:100000000C9472000C9493000C9493000C94930045
:100010000C9493000C9470090C944B090C9493006D
:100020000C9493000C9493000C9493000C94930004
:100030000C9493000C9493000C9493000C949300F4
:100040000C9493000C9493000C9493000C949300E4
:100050000C9493000C9493000C9493000C949300D4
:100060000C9493000C9493000C9493000C949300C4
:100070000C9493000C9493000C9493000C949300B4
:100080000C9493000C9493000C9493000C949300A4
:100090000C9493000C9493000C9493000C94930094
:1000A0000C9493000C9493000C9493000C94930084
:1000B0000C9493000C9493000C9493000C94930074
:1000C0000C9493000C9493000C9493000C94F801FE
:1000D0000C9493000C9493000C9493000C94930054
:1000E0000C94930011241FBECFEFD1E2DEBFCDBF31
:1000F00000E00CBF13E0A0E0B2E0E8E1FEE200E0C7
:100100000BBF02C007900D92AC32B107D9F713E0D4
:10011000ACE2B3E001C01D92AB39B107E1F70E9438
:10012000350F0C940A170C94000086E69EE0FC0143
:100130003197F1F74098419840E348B9429A20E05E
:1001400038E4F9013197F1F74298FC013197F1F762
:100150004098419848B9429AF9013197F1F742988D
:10016000FC013197F1F74098419848B9429AF9015A
:100170003197F1F742980197F1F74098419880E262
:1001800088B9429AC9010197F1F74298089598B148
:100190009F7098B928B1982F907F922B98B940986A
:1001A0004198429A20E038E4F9013197F1F74298FA
:1001B00098B19F7098B998B18295807F982B98B923
:1001C00040984198429AC9010197F1F742980895E1
:1001D00086E69EE00197F1F788E20E94C70081E081
:1001E0000E94C70086E00E94C7008EE00E94C70000
:1001F00080E80E94C700089598B19F7098B928B10F
:10020000982F907F922B98B9409A4198429A20E07B
:1002100038E4F9013197F1F7429898B19F7098B995
:1002200098B18295807F982B98B9409A4198429ACC
:10023000C9010197F1F74298089580E80E94C7002C
:100240000895CF93DF93EC0103C00E94FC00219638
:1002500088818823D1F7DF91CF910895823069F0AA
:10026000833018F48130A9F405C0833049F084301C
:1002700081F40BC0862F815805C0862F815402C09F
:10028000862F8D560E94C7000895862F8D520E949A
:10029000C70008950F931F93CF93DF938A01E9015D
:1002A000882311F0662319F40E941D0102C00E94E8
:1002B0002E01C530D10571F4C80160E177E20E94DA
:1002C000AC16CB01C09690937B0380937A030E9477
:1002D000FC0005C0C430D10511F080E016C0C80193
:1002E00068EE73E00E94AC16CB0160937C039093A0
:1002F0007D036AE070E00E94AC16C09690939A036A
:10030000809399030E94FC0081E0C330D10521F065
:10031000813011F080E016C0C80164E670E00E94F0
:10032000AC16CB0160937C0390937D036AE070E090
:100330000E94AC16C09690939603809395030E94FA
:10034000FC0081E0C230D10521F0813011F080E065
:1003500016C0C8016AE070E00E94AC16CB01609341
:100360007C0390937D036AE070E00E94AC16C09617
:1003700090939303809392030E94FC0081E0C1302C
:10038000D10511F0813061F4C8016AE070E00E948B
:10039000AC16C09690939803809397030E94FC003C
:1003A00026971CF085E40E94FC00DF91CF911F91FD
:1003B0000F9108953B9A439808953B9A4398089566
:1003C00086B1886088B9089586B1877F88B9089515
:1003D000E1EDF0E010821092D00086E08093D20030
:1003E0008FE58093D4001092D50088E9808308952A
:1003F0001F920F920FB60F920BB60F9211242F93EC
:100400003F938F939F93EF93FF938091D6008093B8
:100410009403209177032093D60020912C033091F0
:100420002D03F901EE0FFF1FE258FC4F90E0C0973B
:10043000918380832F5F3F4F30932D0320932C03B4
:1004400080912002909121022817390721F41092FF
:100450002D0310922C0386B1886088B986B1877FFE
:1004600088B981E090E090932F0380932E03FF9151
:10047000EF919F918F913F912F910F900BBE0F9015
:100480000FBE0F901F901895F8943B9A4398E1ED9A
:10049000F0E010821092D00086E08093D2008FE5C9
:1004A0008093D4001092D50088E9808378940895D1
:1004B00020912E0330912F032115310521F4109244
:1004C000310310923003C901089580912E03909159
:1004D0002F03019721F410922F0310922E03809185
:1004E00094030895FC01EE0FFF1FE258FC4F80813A
:1004F0009181089580912C0390912D03089581B1ED
:100500008F6081B982B1807F82B9EAE0F1E08081B9
:1005100088618083EBE0F1E08081886180830895C9
:1005200081B18F6081B982B1807F82B9EAE0F1E068
:10053000808188618083EBE0F1E080818861808345
:100540000895E1E2F1E010829FEF9093250181E0B0
:1005500080932401109229019093280110922B017D
:1005600090932A0110922D0190932C0189EA809397
:1005700020018BE0808308958093280160932A01F5
:10058000089592B1907F8F70892B82B9089582B1BE
:10059000807F866082B9089582B1807F896082B948
:1005A000089582B1807F856082B9089582B1807F8D
:1005B0008A6082B9089582B1807F846082B908958B
:1005C00082B1807F826082B9089582B1807F81602C
:1005D00082B9089582B1807F886082B9089582B11E
:1005E000807F82B90895F89481B18F6081B982B11A
:1005F000807F82B9EAE0F1E0808188618083EBE06E
:10060000F1E0808188618083E1E2F1E010829FEF78
:100610009093250181E08093240110922901909309
:10062000280110922B0190932A0110922D01909392
:100630002C0189EA809320018BE0808378940895CF
:10064000982F883018F088E080937B009770906234
:1006500090937C0080917A00806480937A008091EE
:100660007A0084FFFCCF8091790090917A009061AC
:1006700090937A0010927B000895FC01DB012181A8
:1006800030E021533040808190E0815490408D9340
:100690009C93FA013183208308950F931F93CF9386
:1006A000DF93EB018A01FC0120E030E010C0C901BA
:1006B00063E0880F991F6A95E1F7220F331F820FBD
:1006C000931F242F30E020533040280F391F4191D1
:1006D000442369F7C90165E070E00E94C0160197E4
:1006E00097FF02C084E090E060E070E040E050E0FE
:1006F00004C06F5F7F4F4B5F5F4F42175307CCF3D0
:100700009983888361507040F80171836083DF9121
:10071000CF911F910F91089510927403109273035B
:100720001092720310927103109279031092780361
:1007300008958091730390917403019664E070E0D2
:100740000E94C01690937403809373030895809160
:1007500073039091740301979093740380937303D0
:100760008F5F9F4F31F483E090E090937403809308
:1007700073030895EF92FF920F931F93F801D7012F
:10078000481B590B51834083261B370B2D933C93F9
:100790001F910F91FF90EF900895809171039091B8
:1007A0007203089580917803909179030895809160
:1007B000730390917403009731F4809178039091C2
:1007C0007903019615C08130910551F48091710330
:1007D0009091720301969093720380937103089530
:1007E0008230910551F480917803909179030197BB
:1007F00090937903809378030895039749F4809147
:100800007103909172030197909372038093710327
:100810000895259A2D9A0895269A2E9A0895279A32
:100820002F9A0895259A2D9A269A2E9A279A2F9ACA
:100830000895E1E8F0E010828CEF8093850081E07C
:100840008093840093E0909389008FEF80938800D9
:1008500090938B0080938A0090938D0080938C00FE
:1008600090938700809386008BEA8093800010929B
:1008700082008CE0808308951092890090E0A0E0CF
:10088000B0E0BC01CD010E943E142BE734E14EEEF6
:100890005FE30E940E1320E030E04CE052E40E943F
:1008A000E1120E94381160938800089510928B0025
:1008B00090E0A0E0B0E0BC01CD010E943E142BE727
:1008C00034E14EEE5FE30E940E1320E030E04CE096
:1008D00052E40E94E1120E94381160938A00089548
:1008E00010928D0090E0A0E0B0E0BC01CD010E942C
:1008F0003E142BE734E14EEE5FE30E940E1320E03E
:1009000030E04CE052E40E94E1120E943811609302
:100910008C00089583E0809389008FEF8093880096
:10092000089583E080938B008FEF80938A00089571
:1009300083E080938D008FEF80938C00089580E09A
:100940000E943C0480E197E220E731E0F901319711
:10095000F1F70197D9F781E90E94560480E197E207
:1009600020E731E0F9013197F1F70197D9F783E0FA
:1009700080938B008FEF80938A0088EC0E943C0468
:1009800080E197E220E731E0F9013197F1F7019733
:10099000D9F793E0909389008FEF8093880090932C
:1009A0008B0080938A0090938D0080938C00089533
:1009B0001F93CF93DF9388EC0E943C0488EC0E9445
:1009C000560410913203C0E0D0E907C0812F0E9485
:1009D0007004CE010197F1F711501123B9F710926D
:1009E000320380E197E220E731E0F9013197F1F736
:1009F0000197D9F793E0909389008FEF8093880057
:100A000090938B0080938A0090938D0080938C004C
:100A1000DF91CF911F9108951F93CF93DF9388ECBF
:100A20000E943C0410913203C0E0D0E907C0812F3E
:100A30000E947004CE010197F1F711501123B9F70C
:100A40001092320380E197E220E731E0F90131971B
:100A5000F1F70197D9F793E0909389008FEF809396
:100A6000880090938B0080938A0090938D008093F0
:100A70008C00DF91CF911F91089593E090938900AE
:100A80008FEF8093880090938B0080938A009093DF
:100A90008D0080938C0008958EE60E943C0488E8C7
:100AA00093E120E731E0F9013197F1F70197D9F7A8
:100AB00088EC0E94560488E893E120E731E0F901D0
:100AC0003197F1F70197D9F788EC0E943C0488E848
:100AD00093E120E731E0F9013197F1F70197D9F778
:100AE00093E0909389008FEF8093880090938B0020
:100AF00080938A0090938D0080938C0008951F93BB
:100B0000CF93DF9310913203C0E0D0E90BC0812F67
:100B10000E947004CE010197F1F71B3010F01150C4
:100B200001C01F5F1A3099F7109332030E949F048F
:100B3000DF91CF911F9108951F93CF93DF93109171
:100B40003203C0E0D0E90BC0812F0E947004CE01B7
:100B50000197F1F7103B10F0115001C01F5F1F3AD1
:100B600099F7109332030E949F04DF91CF911F9158
:100B700008951F93CF93DF939C018091730390910D
:100B80007403892B71F580913203232BC1F4182F44
:100B9000C0E0D0E90BC0812F0E947004CE01019704
:100BA000F1F7133310F0115001C01F5F123399F7A2
:100BB0001093320320E137E240E751E03AC0182FAA
:100BC000C0E0D0E90BC0812F0E947004CE010197D4
:100BD000F1F7193210F0115001C01F5F183299F768
:100BE000E7CF80913203232B91F4182FC0E0D0E996
:100BF0000BC0812F0E947004CE010197F1F71838C5
:100C000010F0115001C01F5F173899F7D1CF182F7E
:100C1000C0E0D0E90BC0812F0E947004CE01019783
:100C2000F1F7123910F0115001C01F5F113999F717
:100C3000BFCFCA010197F1F721503040D1F70E9490
:100C40004C05DF91CF911F9108951F93CF93DF93B0
:100C50008091730390917403209132030297A1F461
:100C6000122FC0E0D0E90BC0812F0E947004CE018A
:100C70000197F1F7193C10F0115001C01F5F183CAB
:100C800099F7109332030FC0122FC0E0D0E907C0CC
:100C9000812F0E947004CE010197F1F711501123AA
:100CA000B9F7109232030E944C05DF91CF911F914A
:100CB0000895EF92FF920F931F93CF93DF938C01D0
:100CC0008130910509F086C0809171039091720383
:100CD000FC01EE0FFF1FEE0FFF1FE80FF91F8091C1
:100CE000780390917903E80FF91FEE0FFF1FED5C79
:100CF000FC4FE080F180C0917303D091740321E038
:100D0000E216F10439F1209729F481E090E00E9485
:100D1000B90508C0C130D10519F481E090E026C0C2
:100D20000E9425068091710390917203FC01EE0FE1
:100D3000FF1FEE0FFF1FE80FF91F809178039091BE
:100D40007903E80FF91FEE0FFF1FED5CFC4F1183D5
:100D500000835CC2209729F480E090E00E94B905EE
:100D600021C0C130D105E1F480E090E00E94B905D6
:100D70008091710390917203FC01EE0FFF1FEE0F43
:100D8000FF1FE80FF91F8091780390917903E80F16
:100D9000F91FEE0FFF1FED5CFC4FD183C08336C2FD
:100DA0000E9425068091710390917203FC01EE0F61
:100DB000FF1FEE0FFF1FE80FF91F8091780390913E
:100DC0007903E80FF91FEE0FFF1FED5CFC4FF18276
:100DD000E0821CC28230910509F0A9C080917303A2
:100DE00090917403019790937403809373038F5FC2
:100DF0009F4F31F483E090E09093740380937303EA
:100E00008091710390917203FC01EE0FFF1FEE0FB2
:100E1000FF1FE80FF91F8091780390917903E80F85
:100E2000F91FEE0FFF1FEF5CFC4F00811181C09195
:100E30007303D09174030130110549F1209729F40F
:100E400081E090E00E94B90508C0C130D10519F4D5
:100E500081E090E028C00E94250680917103909166
:100E60007203FC01EE0FFF1FEE0FFF1FE80FF91FCB
:100E70008091780390917903E80FF91FEE0FFF1F1F
:100E8000EF5CFC4F81E090E0918380833FC020972E
:100E900029F480E090E00E94B90521C0C130D1055D
:100EA000E1F480E090E00E94B90580917103909197
:100EB0007203FC01EE0FFF1FEE0FFF1FE80FF91F7B
:100EC0008091780390917903E80FF91FEE0FFF1FCF
:100ED000EF5CFC4FD183C08319C00E94250680912E
:100EE000710390917203FC01EE0FFF1FEE0FFF1FC5
:100EF000E80FF91F8091780390917903E80FF91FAB
:100F0000EE0FFF1FEF5CFC4F118300838091730392
:100F100090917403019690937403809373030497E4
:100F200009F074C110927403109273036FC183307F
:100F3000910509F0BCC080917303909174030196F0
:100F40009093740380937303049721F410927403B5
:100F500010927303809173039091740301969093A0
:100F6000740380937303049721F410927403109216
:100F7000730380917103909172030197FC01EE0F4E
:100F8000FF1FEE0FFF1FE80FF91F8091780390916C
:100F90007903E80FF91FEE0FFF1FEF5CFC4F008194
:100FA0001181C0917303D09174030130110551F187
:100FB000209729F481E090E00E94B90508C0C13073
:100FC000D10519F481E090E029C00E9425068091A6
:100FD0007103909172030197FC01EE0FFF1FEE0F5A
:100FE000FF1FE80FF91F8091780390917903E80FB4
:100FF000F91FEE0FFF1FEF5CFC4F81E090E0918343
:10100000808341C0209729F480E090E00E94B905D8
:1010100022C0C130D105E9F480E090E00E94B9051A
:1010200080917103909172030197FC01EE0FFF1FF5
:10103000EE0FFF1FE80FF91F80917803909179035D
:10104000E80FF91FEE0FFF1FEF5CFC4FD183C08349
:101050001AC00E9425068091710390917203019736
:10106000FC01EE0FFF1FEE0FFF1FE80FF91F80912D
:10107000780390917903E80FF91FEE0FFF1FEF5CE3
:10108000FC4F118300838091730390917403019747
:1010900090937403809373038F5F9F4F09F0A4C0F4
:1010A00083E090E090937403809373039DC0843039
:1010B000910509F0ABC08091730390917403019680
:1010C0009093740380937303049721F41092740334
:1010D0001092730380917103909172030197FC0148
:1010E000EE0FFF1FEE0FFF1FE80FF91F809178032F
:1010F00090917903E80FF91FEE0FFF1FED5CFC4F95
:1011000000811181C0917303D091740301301105E6
:1011100051F1209729F481E090E00E94B90508C0C0
:10112000C130D10519F481E090E029C00E94250664
:1011300080917103909172030197FC01EE0FFF1FE4
:10114000EE0FFF1FE80FF91F80917803909179034C
:10115000E80FF91FEE0FFF1FED5CFC4F81E090E000
:101160009183808341C0209729F480E090E00E9421
:10117000B90522C0C130D105E9F480E090E00E94B9
:10118000B90580917103909172030197FC01EE0FF4
:10119000FF1FEE0FFF1FE80FF91F8091780390915A
:1011A0007903E80FF91FEE0FFF1FED5CFC4FD183B1
:1011B000C0831AC00E94250680917103909172032A
:1011C0000197FC01EE0FFF1FEE0FFF1FE80FF91F45
:1011D0008091780390917903E80FF91FEE0FFF1FBC
:1011E000ED5CFC4F11830083809173039091740335
:1011F000019790937403809373038F5F9F4F31F433
:1012000083E090E09093740380937303DF91CF9118
:101210001F910F91FF90EF900895982F883018F04C
:1012200088E080937B009770906290937C0080911F
:101230007A00806480937A0080917A0084FFFCCFEA
:101240008091790090917A00906190937A00109249
:101250007B00089510BA11BA10920701109208018C
:101260000895EAE7F0E0108210927B0080E280931C
:101270007C0080E880BF86E88083089587B1876F0F
:1012800087B988B1807888B908956C98749A089560
:101290006D98759A08951F920F920FB60F921124B0
:1012A0008F939F93AF93BF9380916B0390916C0347
:1012B000A0916D03B0916E030196A11DB11D8093A5
:1012C0006B0390936C03A0936D03B0936E03BF9177
:1012D000AF919F918F910F900FBE0F901F90189517
:1012E0001F920F920FB60F9211248F939F93AF937B
:1012F000BF938091670390916803A0916903B091B7
:101300006A030196A11DB11D809367039093680342
:10131000A0936903B0936A03BF91AF919F918F919E
:101320000F900FBE0F901F901895F894EAE6F0E02A
:10133000808182608083EC9A78940895F894EAE63C
:10134000F0E0808188608083ED9A78940895F89425
:1013500087B1876F87B988B1807888B90E94950076
:101360000E94E80010BA11BA109207011092080109
:10137000EAE7F0E0108210927B0080E280937C002C
:1013800080E880BF86E88083F8943B9A4398E1ED3B
:10139000F0E010821092D00086E08093D2008FE5BA
:1013A0008093D4001092D50088E980837894259AA0
:1013B0002D9A269A2E9A279A2F9A0E9419040E94F3
:1013C000F3026C98749A6D98759AF894EAE6F0E0D6
:1013D000808182608083EC9A7894F894EAE6F0E069
:1013E000808188608083ED9A789478940895A0E055
:1013F000B0E0BC01CD010E943E1425EE30ED4AEA7A
:1014000050E40E940E130E9438119B01AC0110920F
:101410006B0310926C0310926D0310926E03809117
:101420006B0390916C03A0916D03B0916E0328172C
:1014300039074A075B0798F782B1807F82B9089520
:1014400022B1207F266022B90E94F709089522B1B7
:10145000207F296022B90E94F70908951F93CF9336
:10146000DF9384E190E00E94270A10913203C0E0EC
:10147000D0E90BC0812F0E947004CE010197F1F7D3
:10148000103610F0115001C01F5F1F3599F71093EF
:1014900032030E949F0484E190E00E94200A88EEBB
:1014A00093E020E731E0F9013197F1F70197D9F79F
:1014B000DF91CF911F910895EF92FF920F931F93A9
:1014C000A0E0B0E0BC01CD010E943E1428E431EE62
:1014D00042E850E40E940E130E9438117B0100E0A4
:1014E00010E010926B0310926C0310926D03109237
:1014F0006E031092670310926803109269031092B2
:101500006A0380916B0390916C03A0916D03B0917D
:101510006E032091670330916803409169035091F5
:101520006A038E159F05A007B10728F42E153F0505
:101530004007510730F382B1807F82B91F910F912C
:10154000FF90EF90089522B1207F256022B90E947C
:101550005C0A089582E00E94200382E00E9420033A
:1015600083E290E002C081E090E00E94A30A82E062
:101570000E94200390E00F97B4F3089522B1207FDA
:101580002A6022B90E945C0A089582E00E9420032A
:1015900082E00E9420038DE290E002C081E090E0B2
:1015A0000E94BE0A82E00E94200390E00F97B4F3ED
:1015B000089522B1207F246022B9880F991F0E94CC
:1015C0005C0A089582E00E94200382E00E942003CA
:1015D00081E090E00E94D90A82E00E94200390E01E
:1015E0000F97B4F3089522B1207F226022B9880FAB
:1015F000991F0E945C0A089582E00E94200382E005
:101600000E94200381E090E00E94F30A82E00E94A1
:10161000200390E00F97B4F3089522B1207F21605A
:1016200022B9880F991F0E945C0A089583E00E94E6
:10163000200382E00E94200381E00E94200383E0D7
:101640000E94200382E00E94200381E00E94200388
:101650008DE290E002C081E090E00E94D90A82E031
:101660000E94200390E00F97B4F380917303909150
:101670007403019790937403809373038F5F9F4F5C
:1016800031F483E090E090937403809373038DE2D0
:1016900090E002C081E090E00E940D0B82E00E9489
:1016A000200390E00F97B4F380917303909174033B
:1016B000019790937403809373038F5F9F4F31F46E
:1016C00083E090E09093740380937303089522B1B4
:1016D000207F286022B9880F991F0E945C0A089514
:1016E00083E00E94200382E00E94200381E00E94A8
:1016F000200383E00E94200382E00E94200381E017
:101700000E9420038DE290E002C081E090E00E9400
:10171000F30A82E00E94200390E00F97B4F30E9446
:1017200099038DE290E002C081E090E00E94670B97
:1017300082E00E94200390E00F97B4F30E94990387
:101740000895EF92FF920F931F93CF93DF93EC01D5
:101750008AEF8093280180932A0183E00E9420036E
:1017600082E00E94200381E00E94200383E00E9427
:10177000200382E00E94200381E00E942003009168
:1017800073031091740353E0E52EF12CA0C00330D5
:10179000110581F4209729F58DE290E002C081E0E7
:1017A00090E00E94F30A82E00E94200390E00F97ED
:1017B000B4F36BC001151105A1F4C330D10571F468
:1017C0008DE290E002C081E090E00E94D90A82E0C0
:1017D0000E94200390E00F97B4F369C0C230D10596
:1017E00031F002301105C1F4209709F03EC080911C
:1017F000710390917203009739F40115110591F569
:10180000C230D10579F52BC0059761F5023011057D
:1018100049F5209739F523C00130110521F4C33073
:10182000D10519F506C003301105F9F4C130D10511
:10183000E1F480917803909179038530910539F432
:101840000130110579F4C330D10561F408C0892B4A
:1018500049F40330110531F4C130D10519F40E9467
:10186000700B35C00E94160B32C00C171D0784F494
:101870008DE290E002C081E090E00E94F30A82E0F5
:101880000E94200390E00F97B4F30E9499031FC0B9
:101890008DE290E00E94D90A04C081E090E00E94AD
:1018A000A30A82E00E94200390E00F97B4F3809196
:1018B000730390917403019790937403809373035F
:1018C0008F5F9F4F21F4F0927403E0927303809135
:1018D0007303909174038C179D0709F058CF82B160
:1018E000807F82B9DF91CF911F910F91FF90EF9090
:1018F0000895CF93DF93C0917303D0917403209127
:101900007103309172032530310509F042C0809196
:1019100078039091790385309105C1F483E290E0DA
:101920000E94200A8091730390917403892B19F00F
:101930000E94E20A02C00E94FC0A0E942E0A0E9433
:101940000C050E94C50A82E090E01EC0892B09F0B8
:1019500066C083E290E00E94200A80917303909118
:101960007403019739F00E94E20A0E942E0A0E9435
:101970000C0504C00E94FC0A0E942E0A0E940C055D
:101980000E94C50A83E090E09093740380937303F0
:1019900079C08091780390917903232B09F047C097
:1019A0000097D1F483E290E00E94200A80917303B3
:1019B00090917403029719F00E94E20A02C00E94FB
:1019C000FC0A0E942E0A0E940C050E94C50A109271
:1019D00074031092730356C00597C1F483E290E03C
:1019E0000E94200A8091730390917403039719F069
:1019F0000E94E20A02C00E94FC0A0E942E0A0E9473
:101A00000C050E94C50A81E090E0BECFC330D1052D
:101A1000F9F0C230D10589F180E090E029C0C130F1
:101A2000D105B1F0209749F182E090E021C0009704
:101A300059F4C230D10561F0C330D105D9F081E04D
:101A400090E00E94A10B19C00597E1F4209759F48A
:101A500084E190E00E94200A0E942E0A84E190E036
:101A60000E94270A0CC0C330D10539F081E090E014
:101A70000E94A10B0E949C0502C00E947F05CE011E
:101A80000E94A10BDF91CF910895982F883018F014
:101A900088E080937B009770906290937C008091A7
:101AA0007A00806480937A0080917A0084FFFCCF72
:101AB0008091790090917A00906190937A001092D1
:101AC0007B0008957F928F929F92AF92BF92CF92A8
:101AD000DF92EF92FF920F931F93CF93DF9383E0F8
:101AE0000E94450D82E00E94450D81E00E94450D57
:101AF00000E010E0EE24FF24C0E0D0E0AAEF9A2E30
:101B0000FCED7F2EE8EC8E2E83E00E94450DA82E82
:101B1000BB2482E00E94450DC82EDD2481E00E9496
:101B2000450D282F30E08FE0A816B1040CF042C01C
:101B30008FE0C816D10444F4203131052CF0909286
:101B4000280180922A010BC080E1C816D10494F1CB
:101B50002031310584F09092280170922A0182B1DF
:101B6000807F866082B900E010E071E0E72EF12C02
:101B7000C0E0D0E07BC02F303105E1F0E114F1048A
:101B800019F49092280106C081E0E816F10429F4C6
:101B90007092280190922A0104C0909228017092BC
:101BA0002A0182B1807F866082B900E010E0EE24D5
:101BB000FF24DECF80E1A816B104FCF08FE0C81648
:101BC000D10434F42F3031051CF48092280109C06F
:101BD00080E1C816D1048CF02F30310574F4709276
:101BE000280190922A0182B1807F866082B900E04C
:101BF00010E062E0E62EF12CBBCF8FE0C816D104D6
:101C0000ACF52F30310594F58FE0A816B10474F5CA
:101C10008092280180922A0181E0E816F10441F4C3
:101C2000C80164E070E00E94C016029744F40CC042
:101C3000C80164E070E00E94C01602972CF485E0B1
:101C400090E00E94A30A04C085E090E00E94BE0AD2
:101C5000C017D10729F48E010F5F1F4FC0E0D0E0FD
:101C6000C017D1070CF050CF21964ECF88E3A816AD
:101C7000B10424F4283331050CF446CF88E3C816A8
:101C8000D1040CF441CF82B1807F82B988EE93E019
:101C900020E731E0F9013197F1F70197D9F7809109
:101CA00022029091230285369105A4F081E090E014
:101CB0009093230280932202DF91CF911F910F9185
:101CC000FF90EF90DF90CF90BF90AF909F908F905C
:101CD0007F9008950196ECCFEF92FF920F931F93A0
:101CE000CF93DF938B012091710330917203EC014C
:101CF000C21BD30B8091780390917903081B190BB9
:101D0000D7FF1AC083E090E00E94A10B80E7E82E85
:101D100081E0F82E84E190E00E94200A88EE93E0B2
:101D2000F7013197F1F70197D9F70E94620D0E94F0
:101D3000D703219679F71BC02097C9F081E090E086
:101D40000E94A10BB0E7EB2EB1E0FB2E84E190E006
:101D50000E94200A88EE93E0F7013197F1F701978E
:101D6000D9F70E94620D0E94D703219779F717FFD8
:101D700019C082E090E00E94A10BC0E7D1E084E1AD
:101D800090E00E94200A88EE93E0FE013197F1F77F
:101D90000197D9F70E94620D0E94D7030F5F1F4F72
:101DA00071F71BC001151105C1F080E090E00E94A1
:101DB000A10BC0E7D1E084E190E00E94200A88EE08
:101DC00093E0FE013197F1F70197D9F70E94620D78
:101DD0000E94D7030150104071F7DF91CF911F91FE
:101DE0000F91FF90EF9008959C0180917103909165
:101DF0007203281739078CF4809178039091790346
:101E00002F5F3F4F681779079CF46F5F7F4FC901C1
:101E10000E946C0E83E090E025C08217930774F453
:101E20008091780390917903861797073CF415C049
:101E3000C9010E946C0E84E090E014C08091780388
:101E4000909179036817790744F46F5F7F4FC90158
:101E50000E946C0E82E090E005C0C9010E946C0EE9
:101E600081E090E00E94590608952F923F924F9290
:101E70005F926F927F928F929F92AF92BF92CF921A
:101E8000DF92EF92FF920F931F93DF93CF93CDB723
:101E9000DEB7C452D3400FB6F894DEBF0FBECDBF3D
:101EA0000E94A7090E94D80481E061E00E942E01EF
:101EB00080E092E00E942101F999FECF88E091E054
:101EC00092BD81BDF89A80B5853509F060C0F99959
:101ED000FECF1FBA88E091E092BD81BD85E180BD53
:101EE0000FB6F894FA9AF99A0FBE81E061E00E9469
:101EF0002E018FE092E00E94210182E061E00E94C9
:101F00002E01FDECEF2EF12CEC0EFD1E00E010E09A
:101F100080912E0390912F03009749F41092310382
:101F20001092300382E061E00E942E01F1CF019710
:101F300021F410922F0310922E0380919403F70145
:101F400080830F5F1F4F11820894E11CF11C8332C4
:101F5000F9F6CE0183539F4F080F191FF801108225
:101F600020E030E0FC01E20FF31FE081F999FECFA1
:101F70001FBA32BD21BDE0BD0FB6F894FA9AF99AA6
:101F80000FBE2F5F3F4F283C310561F755C120E060
:101F900030E0AE01435A5D4FF999FECF32BD21BD0D
:101FA000F89A80B5FA01E20FF31F80832F5F3F4F4D
:101FB000283C310589F7F999FECF1FBA88E091E0F6
:101FC00092BD81BD85E580BD0FB6F894FA9AF99A65
:101FD0000FBE80E090E09E012B563E4FF901E80FC6
:101FE000F91FE081F999FECF1FBA92BD81BDE0BD16
:101FF0000FB6F894FA9AF99A0FBE0196883C9105AB
:1020000069F720E030E060E070E0AA24BB248E0194
:10201000035A1D4FE5E08E2E912C8C0E9D1E6E01F5
:102020000894C11CD11C59E6E52EF12CEC0EFD1EC6
:1020300074C08E2F81568A3178F4D801A20FB31F55
:10204000FB01EE0FFF1FEE0FFF1FE60FF71FE80D5E
:10205000F91D40E050E00AC0E154EA3170F326C0B7
:1020600091934F5F5F4F2F5F3F4F11969C919C3232
:1020700079F0933269F0283C310554F4892F815668
:102080008A3170F3805E8A3158F38F5E8A3040F374
:10209000FB01EE0FFF1FEE0FFF1FE60FF71FEC0D0A
:1020A000FD1DE40FF51F14826F5F7F4FF801E20FF3
:1020B000F31F808180538A3070F5DF01F501EE0F48
:1020C000FF1FEE0FFF1FEA0DFB1DEE0DFF1D40E091
:1020D00050E005C081934F5F5F4F2F5F3F4F8C9162
:1020E0008C3251F08A3041F0283C31052CF4803399
:1020F00018F011968A3370F3F501EE0FFF1FEE0F03
:10210000FF1FEA0DFB1DE40FF51FEE0DFF1D1082F2
:102110000894A11CB11C2F5F3F4FF801E20FF31F81
:10212000E081E33231F0EE2321F0283C31050CF45C
:1021300080CF109274031092730310927203109266
:102140007103109279031092780339E6632E712C93
:102150006C0E7D1E25E0C22ED12CCC0EDD1E8824F7
:10216000992493E0292E312C2C0E3D1E2E0108942B
:10217000411C511C4EC0F6018081E82EFF248FEBDC
:102180009FEFE80EF91E8181082F10E001531040E7
:102190008091710390917203892B91F4809178035F
:1021A00090917903892B61F4E114F10449F401154C
:1021B000110531F480E090E061E070E00E946C0E67
:1021C000C701B8010E946C0E82B1807F82B90E9463
:1021D000790C88EE93E0E0E7F1E03197F1F70197B1
:1021E000D1F70E940C05C301B201A1010E944D0369
:1021F0006B817C8189819A810E94F40E0E94D804AF
:102200000894811C911CE5E0F0E06E0E7F1ECE0E5E
:10221000DF1E8A149B040CF4AECF86B1886088B9A7
:1022200080E593EC20E731E0F9013197F1F7019770
:10223000D9F786B1877F88B980E090E0CC5DDC4F2C
:102240000FB6F894DEBF0FBECDBFCF91DF911F91C7
:102250000F91FF90EF90DF90CF90BF90AF909F9045
:102260008F907F906F905F904F903F902F90089548
:10227000EF92FF920F931F937B018C0120E030E0DF
:1022800040E05FE40E94BA1388238CF0C801B701D4
:1022900020E030E040E05FE40E94B0120E94EA13C8
:1022A0009B01AC01205030404040504806C0C8015E
:1022B000B7010E94EA139B01AC01B901CA011F9149
:1022C0000F91FF90EF900895A0E0B0E0EAE6F1E111
:1022D0000C94D316DC012B01FA019C91923008F486
:1022E00039C1EB018881823008F433C1943069F43C
:1022F000843009F02FC111969C911197898198170C
:1023000009F428C1A4E2B2E025C1843009F421C156
:102310008230A9F4923009F01DC19A01AD0188E024
:10232000EA010990AE01E90109929E018150C1F7CD
:10233000E201898111969C918923818308C19230A1
:1023400009F407C112962D903C901397EB018A81F6
:102350009B811496AD90BD90CD90DC901797EC804A
:10236000FD800E811F819101281B390BB90137FFB8
:1023700004C066277727621B730B603271050CF06F
:1023800061C0121613066CF537014801062E04C011
:1023900096948794779467940A94D2F721E030E07A
:1023A00040E050E004C0220F331F441F551F6A95C0
:1023B000D2F721503040404050402E213F21402351
:1023C0005123211531054105510521F021E030E06F
:1023D00040E050E079018A01E628F7280829192908
:1023E0003CC0232BD1F1260E371E35014601062EA7
:1023F00004C096948794779467940A94D2F721E066
:1024000030E040E050E004C0220F331F441F551F4E
:102410006A95D2F721503040404050402A213B215C
:102420004C215D21211531054105510521F021E0A7
:1024300030E040E050E059016A01A628B728C828DA
:10244000D9280BC0821593052CF01C01AA24BB24AB
:10245000650103C0EE24FF24870111969C91D201EF
:1024600011968C91981709F445C0992339F0A80169
:1024700097012A193B094C095D0906C0A60195017F
:102480002E193F09400B510B57FD08C011823382B2
:10249000228224833583468357831DC081E0818354
:1024A0003382228288279927DC01821B930BA40B9D
:1024B000B50B84839583A683B7830DC0220F331F8A
:1024C000441F551F2483358346835783828193811C
:1024D0000197938382832481358146815781DA0174
:1024E000C9010197A109B1098F5F9F4FAF4FBF434A
:1024F00028F30BC0918333822282EA0CFB1C0C1D53
:102500001D1DE482F5820683178383E08083248186
:1025100035814681578157FF1AC0C901AA2797FD07
:10252000A095BA2F81709070A070B07056954795A5
:1025300037952795822B932BA42BB52B84839583DA
:10254000A683B78382819381019693838283DF017F
:1025500001C0D201CD01CDB7DEB7E2E10C94EF1698
:10256000A0E2B0E0E6EBF2E10C94DF1669837A8337
:102570008B839C832D833E834F835887E9E0EE2E27
:10258000F12CEC0EFD1ECE010196B7010E94DB1569
:102590008E010F5E1F4FCE010596B8010E94DB151C
:1025A0008A8991E089278A8BC701B801AE01475E0D
:1025B0005F4F0E9464110E940615A096E6E00C94FD
:1025C000FB16A0E2B0E0E7EEF2E10C94DF166983BF
:1025D0007A838B839C832D833E834F835887F9E0D6
:1025E000EF2EF12CEC0EFD1ECE010196B7010E94DC
:1025F000DB158E010F5E1F4FCE010596B8010E94BC
:10260000DB15C701B801AE01475E5F4F0E94641140
:102610000E940615A096E6E00C94FB16A8E1B0E037
:10262000E4E1F3E10C94DB1669837A838B839C836A
:102630002D833E834F835887B9E0EB2EF12CEC0EAF
:10264000FD1ECE010196B7010E94DB158E010F5EC3
:102650001F4FCE010596B8010E94DB152985223057
:1026600008F47EC03989323010F4B8017CC08A8504
:102670009A8989278A87243011F0223031F4231770
:1026800009F06EC064E272E06EC0343039F41D8629
:102690001E861F86188A1C861B8604C0323021F4D1
:1026A00084E08987B7015FC02B853C858B899C8935
:1026B000281B390B3C872B87ED84FE840F851889F6
:1026C000AD88BE88CF88D88CEA14FB040C051D05A4
:1026D00040F4EE0CFF1C001F111F215030403C87BE
:1026E0002B8720E030E040E050E080E090E0A0E088
:1026F000B0E460E070E0EA14FB040C051D0540F056
:10270000282B392B4A2B5B2BEA18FB080C091D09D7
:10271000B695A79597958795EE0CFF1C001F111F86
:102720006F5F7F4F6F31710531F7DA01C9018F7724
:102730009070A070B07080349105A105B10561F46E
:1027400027FD0AC0E114F1040105110529F0205C00
:102750003F4F4F4F5F4F20782D873E874F87588BD5
:10276000BE01675F7F4FCB010E9406156896EAE0C5
:102770000C94F716A8E1B0E0E0ECF3E10C94DF165E
:1027800069837A838B839C832D833E834F83588711
:1027900089E0E82EF12CEC0EFD1ECE010196B7016A
:1027A0000E94DB158E010F5E1F4FCE010596B8010A
:1027B0000E94DB158985823040F08989823028F0BB
:1027C000C701B8010E94531601C08FEF6896E6E07A
:1027D0000C94FB16ACE0B0E0E0EFF3E10C94E316F0
:1027E00069837A838B839C83CE010196BE016B5FE4
:1027F0007F4F0E94DB158D81823061F1823050F174
:10280000843021F48E81882351F12EC02F813885A8
:1028100037FD20C06E812F3131051CF06623F9F0A1
:1028200023C08EE190E0821B930B29853A854B856E
:102830005C8504C056954795379527958A95D2F7BC
:102840006623B1F050954095309521953F4F4F4FFD
:102850005F4F0EC020E030E040E050E009C02FEFB5
:102860003FEF4FEF5FE704C020E030E040E050E88A
:10287000B901CA012C96E2E00C94FF16A8E0B0E082
:10288000E4E4F4E10C94DB167B018C016115710525
:102890008105910519F482E0898360C083E0898312
:1028A0008EE1C82ED12CDC82CB82ED82FE820F839A
:1028B0001887C801B7010E94B714FC013197F7FFD0
:1028C0003BC0222733272E1B3F0B57016801022EE6
:1028D00004C0D694C794B794A7940A94D2F740E062
:1028E00050E060E070E081E090E0A0E0B0E004C083
:1028F000880F991FAA1FBB1F2A95D2F70197A1091C
:10290000B1098E219F21A023B1230097A105B10514
:1029100021F041E050E060E070E04A295B296C2939
:102920007D294D835E836F8378878EE190E08E1BD7
:102930009F0B9C838B8312C0309781F00E2E04C0B6
:10294000EE0CFF1C001F111F0A94D2F7ED82FE82CD
:102950000F831887CE1ADF0ADC82CB821A82CE015F
:1029600001960E9406152896EAE00C94F716EF925D
:10297000FF920F931F937B018C0180E0E81680E0AB
:10298000F80681E0080780E0180788F48FEFE81662
:10299000F1040105110531F028F088E090E0A0E095
:1029A000B0E017C080E090E0A0E0B0E012C080E0AE
:1029B000E81680E0F80680E0080781E0180728F0B4
:1029C00088E190E0A0E0B0E004C080E190E0A0E009
:1029D000B0E020E230E040E050E0281B390B4A0B29
:1029E0005B0B04C016950795F794E7948A95D2F788
:1029F000F701E45DFD4F8081281B31094109510930
:102A0000C9011F910F91FF90EF900895DF92EF920F
:102A1000FF920F931F93FC01E480F58006811781DC
:102A2000D1808081823048F480E090E0A0E1B0E085
:102A3000E82AF92A0A2B1B2BA5C0843009F49FC071
:102A4000823021F4EE24FF24870105C0E114F10453
:102A50000105110519F4E0E0F0E096C06281738190
:102A60009FEF623879070CF05BC022E83FEF261B2E
:102A7000370B2A3131052CF020E030E040E050E007
:102A80002AC0B801A701022E04C076956795579514
:102A900047950A94D2F781E090E0A0E0B0E004C04E
:102AA000880F991FAA1FBB1F2A95D2F70197A1096A
:102AB000B1098E219F21A023B1230097A105B10563
:102AC00021F081E090E0A0E0B0E09A01AB01282B7A
:102AD000392B4A2B5B2BDA01C9018F779070A070DC
:102AE000B07080349105A105B10539F427FF09C004
:102AF000205C3F4F4F4F5F4F04C0215C3F4F4F4F13
:102B00005F4FE0E0F0E02030A0E03A07A0E04A07A5
:102B1000A0E45A0710F0E1E0F0E079018A0127C053
:102B20006038710564F5FB01E158FF4FD801C7011A
:102B30008F779070A070B07080349105A105B105B9
:102B400039F4E7FE0DC080E490E0A0E0B0E004C0FE
:102B50008FE390E0A0E0B0E0E80EF91E0A1F1B1F13
:102B600017FF05C016950795F794E794319687E00F
:102B700016950795F794E7948A95D1F705C0EE244A
:102B8000FF248701EFEFF0E06E2F679566276795CA
:102B9000902F9F77D794DD24D7948E2F8695492F39
:102BA000462B582F5D29B701CA011F910F91FF9045
:102BB000EF90DF900895FC01DB014081518122817B
:102BC000622F6F7770E0221F2227221F9381892FA7
:102BD000880F822B282F30E0991F9927991F119673
:102BE0009C93119721153105A9F5411551056105F2
:102BF000710511F482E037C082E89FEF13969C9331
:102C00008E9312979A01AB0167E0220F331F441F86
:102C1000551F6A95D1F783E08C930DC0220F331FA7
:102C2000441F551F12968D919C91139701971396EF
:102C30009C938E931297203080E0380780E04807FD
:102C400080E4580758F314962D933D934D935C936D
:102C5000179708952F3F310579F441155105610506
:102C6000710519F484E08C93089564FF03C081E03A
:102C70008C9312C01C9210C02F57304013963C9377
:102C80002E93129783E08C9387E0440F551F661FA5
:102C9000771F8A95D1F7706414964D935D936D9369
:102CA0007C93179708951F93DC01FB019C91923050
:102CB00008F447C08081823008F443C0943051F456
:102CC00011961C91843099F58181682F70E0611B09
:102CD00071093FC0843021F0923031F48230B9F173
:102CE0008181882389F12DC011961C911197823022
:102CF000F1F081811817D9F412962D913C91139718
:102D0000828193818217930794F028173907BCF0CA
:102D100014968D919D910D90BC91A02D24813581AB
:102D200046815781281739074A075B0718F4112392
:102D300041F00AC082179307A407B50740F4112396
:102D400019F061E070E005C06FEF7FEF02C060E056
:102D500070E0CB011F910895AA1BBB1B51E107C076
:102D6000AA1FBB1FA617B70710F0A61BB70B881F1B
:102D7000991F5A95A9F780959095BC01CD010895AA
:102D800097FB092E07260AD077FD04D0E5DF06D091
:102D900000201AF4709561957F4F0895F6F790958D
:102DA00081959F4F08952F923F924F925F926F921D
:102DB0007F928F929F92AF92BF92CF92DF92EF92CB
:102DC000FF920F931F93CF93DF93CDB7DEB7CA1B4C
:102DD000DB0B0FB6F894DEBF0FBECDBF19942A8867
:102DE000398848885F846E847D848C849B84AA841F
:102DF000B984C884DF80EE80FD800C811B81AA81AC
:102E0000B981CE0FD11D0FB6F894DEBF0FBECDBF76
:082E1000ED010895F894FFCFD5
:102E180053657269616C20696E7075742020005367
:102E2800657269616C20696E707574203A2D200096
:102E3800280001000000000000000000000102025C
:102E4800030303030404040404040404050505053A
:102E58000505050505050505050505050606060616
:102E680006060606060606060606060606060606FA
:102E780006060606060606060606060607070707E6
:102E880007070707070707070707070707070707CA
:102E980007070707070707070707070707070707BA
:102EA80007070707070707070707070707070707AA
:102EB8000707070707070707070707070808080896
:102EC800080808080808080808080808080808087A
:102ED800080808080808080808080808080808086A
:102EE800080808080808080808080808080808085A
:102EF800080808080808080808080808080808084A
:102F08000808080808080808080808080808080839
:102F18000808080808080808080808080808080829
:102F28000808080808080808080808080808080819
:0C2F38000808080808080808080808082D
:00000001FF
